{
  "contractName": "refugeeIdentity",
  "abi": [
    {
      "constant": true,
      "inputs": [],
      "name": "refugeeCount",
      "outputs": [
        {
          "name": "",
          "type": "uint256"
        }
      ],
      "payable": false,
      "stateMutability": "view",
      "type": "function"
    },
    {
      "constant": false,
      "inputs": [
        {
          "name": "_regNo",
          "type": "uint256"
        },
        {
          "name": "_name",
          "type": "string"
        },
        {
          "name": "_country",
          "type": "string"
        },
        {
          "name": "_age",
          "type": "uint256"
        },
        {
          "name": "_refugeeGender",
          "type": "uint8"
        },
        {
          "name": "_refugeeBloodgroup",
          "type": "uint8"
        },
        {
          "name": "_passNo",
          "type": "address"
        },
        {
          "name": "_hash",
          "type": "string"
        }
      ],
      "name": "addRefugee",
      "outputs": [],
      "payable": false,
      "stateMutability": "nonpayable",
      "type": "function"
    },
    {
      "constant": true,
      "inputs": [
        {
          "name": "_regNo",
          "type": "uint256"
        }
      ],
      "name": "getRefugee",
      "outputs": [
        {
          "name": "_name",
          "type": "string"
        },
        {
          "name": "_country",
          "type": "string"
        },
        {
          "name": "_age",
          "type": "uint256"
        },
        {
          "name": "_refugeeGender",
          "type": "uint8"
        },
        {
          "name": "_refugeeBloodgroup",
          "type": "uint8"
        },
        {
          "name": "_passNo",
          "type": "address"
        },
        {
          "name": "_hash",
          "type": "string"
        }
      ],
      "payable": false,
      "stateMutability": "view",
      "type": "function"
    }
  ],
  "bytecode": "0x608060405234801561001057600080fd5b506109e4806100206000396000f3fe608060405260043610610057576000357c0100000000000000000000000000000000000000000000000000000000900463ffffffff1680630a4b98071461005c57806335daaeec146102a1578063e4b0f13e14610491575b600080fd5b34801561006857600080fd5b5061029f600480360361010081101561008057600080fd5b8101908080359060200190929190803590602001906401000000008111156100a757600080fd5b8201836020820111156100b957600080fd5b803590602001918460018302840111640100000000831117156100db57600080fd5b91908080601f016020809104026020016040519081016040528093929190818152602001838380828437600081840152601f19601f8201169050808301925050505050505091929192908035906020019064010000000081111561013e57600080fd5b82018360208201111561015057600080fd5b8035906020019184600183028401116401000000008311171561017257600080fd5b91908080601f016020809104026020016040519081016040528093929190818152602001838380828437600081840152601f19601f82011690508083019250505050505050919291929080359060200190929190803560ff169060200190929190803560ff169060200190929190803573ffffffffffffffffffffffffffffffffffffffff1690602001909291908035906020019064010000000081111561021957600080fd5b82018360208201111561022b57600080fd5b8035906020019184600183028401116401000000008311171561024d57600080fd5b91908080601f016020809104026020016040519081016040528093929190818152602001838380828437600081840152601f19601f8201169050808301925050505050505091929192905050506104bc565b005b3480156102ad57600080fd5b506102da600480360360208110156102c457600080fd5b8101908080359060200190929190505050610646565b6040518080602001806020018881526020018760028111156102f857fe5b60ff16815260200186600781111561030c57fe5b60ff1681526020018573ffffffffffffffffffffffffffffffffffffffff1673ffffffffffffffffffffffffffffffffffffffff1681526020018060200184810384528b818151815260200191508051906020019080838360005b83811015610382578082015181840152602081019050610367565b50505050905090810190601f1680156103af5780820380516001836020036101000a031916815260200191505b5084810383528a818151815260200191508051906020019080838360005b838110156103e85780820151818401526020810190506103cd565b50505050905090810190601f1680156104155780820380516001836020036101000a031916815260200191505b50848103825285818151815260200191508051906020019080838360005b8381101561044e578082015181840152602081019050610433565b50505050905090810190601f16801561047b5780820380516001836020036101000a031916815260200191505b509a505050505050505050505060405180910390f35b34801561049d57600080fd5b506104a661090d565b6040518082815260200191505060405180910390f35b6001600080828254019250508190555060e0604051908101604052808881526020018681526020018560028111156104f057fe5b815260200187815260200184600781111561050757fe5b81526020018373ffffffffffffffffffffffffffffffffffffffff16815260200182815250600160008a8152602001908152602001600020600082015181600001908051906020019061055b929190610913565b506020820151816001015560408201518160020160006101000a81548160ff0219169083600281111561058a57fe5b021790555060608201518160030190805190602001906105ab929190610913565b5060808201518160040160006101000a81548160ff021916908360078111156105d057fe5b021790555060a08201518160040160016101000a81548173ffffffffffffffffffffffffffffffffffffffff021916908373ffffffffffffffffffffffffffffffffffffffff16021790555060c0820151816005019080519060200190610638929190610913565b509050505050505050505050565b6060806000806000806060600160008981526020019081526020016000206000018054600181600116156101000203166002900480601f0160208091040260200160405190810160405280929190818152602001828054600181600116156101000203166002900480156106fb5780601f106106d0576101008083540402835291602001916106fb565b820191906000526020600020905b8154815290600101906020018083116106de57829003601f168201915b50505050509650600160008981526020019081526020016000206001015494506001600089815260200190815260200160002060020160009054906101000a900460ff169350600160008981526020019081526020016000206003018054600181600116156101000203166002900480601f0160208091040260200160405190810160405280929190818152602001828054600181600116156101000203166002900480156107eb5780601f106107c0576101008083540402835291602001916107eb565b820191906000526020600020905b8154815290600101906020018083116107ce57829003601f168201915b505050505095506001600089815260200190815260200160002060040160009054906101000a900460ff1692506001600089815260200190815260200160002060040160019054906101000a900473ffffffffffffffffffffffffffffffffffffffff169150600160008981526020019081526020016000206005018054600181600116156101000203166002900480601f0160208091040260200160405190810160405280929190818152602001828054600181600116156101000203166002900480156108fb5780601f106108d0576101008083540402835291602001916108fb565b820191906000526020600020905b8154815290600101906020018083116108de57829003601f168201915b50505050509050919395979092949650565b60005481565b828054600181600116156101000203166002900490600052602060002090601f016020900481019282601f1061095457805160ff1916838001178555610982565b82800160010185558215610982579182015b82811115610981578251825591602001919060010190610966565b5b50905061098f9190610993565b5090565b6109b591905b808211156109b1576000816000905550600101610999565b5090565b9056fea165627a7a72305820d7302592d0d725bc632c37aa6620f07851f0367fc0cb5087087e184b112359bb0029",
  "source": "pragma solidity ^0.5.0;\n\ncontract refugeeIdentity {\n    uint256 public refugeeCount;\n    \n    enum gender {male, female, other}\n    enum bloodGroup {AP,AN,BP,BN,OP,ON,ABP,ABN}\n    struct profile {\n        string name;\n        uint age;\n        gender refugeeGender;\n        string country;\n        bloodGroup refugeeBloodgroup;\n        address accountAddress;\n        string hash;\n    }\n     \n    mapping(uint => profile) refugee;\n    \n    function addRefugee(uint _regNo, string memory _name, string memory _country, uint _age, gender _refugeeGender,bloodGroup _refugeeBloodgroup,address _passNo,string memory _hash) public {\n        refugeeCount +=1;\n        \n        refugee[_regNo] = profile(_name,_age,_refugeeGender,_country,_refugeeBloodgroup,_passNo,_hash);\n    }\n    \n    function getRefugee(uint _regNo) public view returns (string memory _name, string memory _country, uint _age, gender _refugeeGender,bloodGroup _refugeeBloodgroup,address _passNo,string memory _hash){\n        _name = refugee[_regNo].name;\n        _age = refugee[_regNo].age;\n        _refugeeGender = refugee[_regNo].refugeeGender;\n        _country = refugee[_regNo].country;\n        _refugeeBloodgroup = refugee[_regNo].refugeeBloodgroup;\n        _passNo = refugee[_regNo].accountAddress;\n        _hash = refugee[_regNo].hash;\n    }\n    }\n",
  "sourcePath": "/home/an0n/Desktop/kba/etherum/project/contracts/refugee_KYC_contract.sol",
  "compiler": {
    "name": "solc",
    "version": "0.5.0+commit.1d4f565a.Emscripten.clang"
  },
  "schemaVersion": "3.0.9",
  "updatedAt": "2019-06-03T04:37:01.314Z",
  "devdoc": {
    "methods": {}
  },
  "userdoc": {
    "methods": {}
  }
}